{
  "contractName": "GGToken",
  "abi": [
    {
      "inputs": [
        {
          "internalType": "uint256",
          "name": "_initialSupply",
          "type": "uint256"
        }
      ],
      "stateMutability": "nonpayable",
      "type": "constructor"
    },
    {
      "anonymous": false,
      "inputs": [
        {
          "indexed": true,
          "internalType": "address",
          "name": "_owner",
          "type": "address"
        },
        {
          "indexed": true,
          "internalType": "address",
          "name": "_spender",
          "type": "address"
        },
        {
          "indexed": false,
          "internalType": "uint256",
          "name": "_value",
          "type": "uint256"
        }
      ],
      "name": "Approval",
      "type": "event"
    },
    {
      "anonymous": false,
      "inputs": [
        {
          "indexed": true,
          "internalType": "address",
          "name": "_from",
          "type": "address"
        },
        {
          "indexed": true,
          "internalType": "address",
          "name": "_to",
          "type": "address"
        },
        {
          "indexed": false,
          "internalType": "uint256",
          "name": "_value",
          "type": "uint256"
        }
      ],
      "name": "Transfer",
      "type": "event"
    },
    {
      "inputs": [
        {
          "internalType": "address",
          "name": "",
          "type": "address"
        },
        {
          "internalType": "address",
          "name": "",
          "type": "address"
        }
      ],
      "name": "allowance",
      "outputs": [
        {
          "internalType": "uint256",
          "name": "",
          "type": "uint256"
        }
      ],
      "stateMutability": "view",
      "type": "function"
    },
    {
      "inputs": [
        {
          "internalType": "address",
          "name": "",
          "type": "address"
        }
      ],
      "name": "balanceOf",
      "outputs": [
        {
          "internalType": "uint256",
          "name": "",
          "type": "uint256"
        }
      ],
      "stateMutability": "view",
      "type": "function"
    },
    {
      "inputs": [],
      "name": "name",
      "outputs": [
        {
          "internalType": "string",
          "name": "",
          "type": "string"
        }
      ],
      "stateMutability": "view",
      "type": "function"
    },
    {
      "inputs": [],
      "name": "standard",
      "outputs": [
        {
          "internalType": "string",
          "name": "",
          "type": "string"
        }
      ],
      "stateMutability": "view",
      "type": "function"
    },
    {
      "inputs": [],
      "name": "symbol",
      "outputs": [
        {
          "internalType": "string",
          "name": "",
          "type": "string"
        }
      ],
      "stateMutability": "view",
      "type": "function"
    },
    {
      "inputs": [],
      "name": "totalSupply",
      "outputs": [
        {
          "internalType": "uint256",
          "name": "",
          "type": "uint256"
        }
      ],
      "stateMutability": "view",
      "type": "function"
    },
    {
      "inputs": [],
      "name": "wagerContract",
      "outputs": [
        {
          "internalType": "contract WagerContract",
          "name": "",
          "type": "address"
        }
      ],
      "stateMutability": "view",
      "type": "function"
    },
    {
      "inputs": [
        {
          "internalType": "address",
          "name": "_to",
          "type": "address"
        },
        {
          "internalType": "uint256",
          "name": "_value",
          "type": "uint256"
        }
      ],
      "name": "transfer",
      "outputs": [
        {
          "internalType": "bool",
          "name": "success",
          "type": "bool"
        }
      ],
      "stateMutability": "nonpayable",
      "type": "function"
    },
    {
      "inputs": [
        {
          "internalType": "address",
          "name": "_spender",
          "type": "address"
        },
        {
          "internalType": "uint256",
          "name": "_value",
          "type": "uint256"
        }
      ],
      "name": "approve",
      "outputs": [
        {
          "internalType": "bool",
          "name": "success",
          "type": "bool"
        }
      ],
      "stateMutability": "nonpayable",
      "type": "function"
    },
    {
      "inputs": [
        {
          "internalType": "address",
          "name": "_from",
          "type": "address"
        },
        {
          "internalType": "address",
          "name": "_to",
          "type": "address"
        },
        {
          "internalType": "uint256",
          "name": "_value",
          "type": "uint256"
        }
      ],
      "name": "transferFrom",
      "outputs": [
        {
          "internalType": "bool",
          "name": "success",
          "type": "bool"
        }
      ],
      "stateMutability": "nonpayable",
      "type": "function"
    }
  ],
  "bytecode": "0x60806040526040518060400160405280600881526020017f474720546f6b656e000000000000000000000000000000000000000000000000815250600090805190602001906200005192919062000173565b506040518060400160405280600281526020017f4747000000000000000000000000000000000000000000000000000000000000815250600190805190602001906200009f92919062000173565b506040518060400160405280600d81526020017f474720546f6b656e2076312e300000000000000000000000000000000000000081525060029080519060200190620000ed92919062000173565b50348015620000fb57600080fd5b50604051620010a5380380620010a5833981810160405281019062000121919062000263565b80600560003373ffffffffffffffffffffffffffffffffffffffff1673ffffffffffffffffffffffffffffffffffffffff168152602001908152602001600020819055508060048190555050620002fa565b8280546200018190620002c4565b90600052602060002090601f016020900481019282620001a55760008555620001f1565b82601f10620001c057805160ff1916838001178555620001f1565b82800160010185558215620001f1579182015b82811115620001f0578251825591602001919060010190620001d3565b5b50905062000200919062000204565b5090565b5b808211156200021f57600081600090555060010162000205565b5090565b600080fd5b6000819050919050565b6200023d8162000228565b81146200024957600080fd5b50565b6000815190506200025d8162000232565b92915050565b6000602082840312156200027c576200027b62000223565b5b60006200028c848285016200024c565b91505092915050565b7f4e487b7100000000000000000000000000000000000000000000000000000000600052602260045260246000fd5b60006002820490506001821680620002dd57607f821691505b60208210811415620002f457620002f362000295565b5b50919050565b610d9b806200030a6000396000f3fe608060405234801561001057600080fd5b506004361061009e5760003560e01c806370a082311161006657806370a082311461015d57806395d89b411461018d5780639cf49c0a146101ab578063a9059cbb146101c9578063dd62ed3e146101f95761009e565b806306fdde03146100a3578063095ea7b3146100c157806318160ddd146100f157806323b872dd1461010f5780635a3b7e421461013f575b600080fd5b6100ab610229565b6040516100b891906109b6565b60405180910390f35b6100db60048036038101906100d69190610a71565b6102b7565b6040516100e89190610acc565b60405180910390f35b6100f96103a9565b6040516101069190610af6565b60405180910390f35b61012960048036038101906101249190610b11565b6103af565b6040516101369190610acc565b60405180910390f35b610147610635565b60405161015491906109b6565b60405180910390f35b61017760048036038101906101729190610b64565b6106c3565b6040516101849190610af6565b60405180910390f35b6101956106db565b6040516101a291906109b6565b60405180910390f35b6101b3610769565b6040516101c09190610bf0565b60405180910390f35b6101e360048036038101906101de9190610a71565b61078f565b6040516101f09190610acc565b60405180910390f35b610213600480360381019061020e9190610c0b565b6108f8565b6040516102209190610af6565b60405180910390f35b6000805461023690610c7a565b80601f016020809104026020016040519081016040528092919081815260200182805461026290610c7a565b80156102af5780601f10610284576101008083540402835291602001916102af565b820191906000526020600020905b81548152906001019060200180831161029257829003601f168201915b505050505081565b600081600660003373ffffffffffffffffffffffffffffffffffffffff1673ffffffffffffffffffffffffffffffffffffffff16815260200190815260200160002060008573ffffffffffffffffffffffffffffffffffffffff1673ffffffffffffffffffffffffffffffffffffffff168152602001908152602001600020819055508273ffffffffffffffffffffffffffffffffffffffff163373ffffffffffffffffffffffffffffffffffffffff167f8c5be1e5ebec7d5bd14f71427d1e84f3dd0314c0f7b2291e5b200ac8c7c3b925846040516103979190610af6565b60405180910390a36001905092915050565b60045481565b6000600560008573ffffffffffffffffffffffffffffffffffffffff1673ffffffffffffffffffffffffffffffffffffffff168152602001908152602001600020548211156103fd57600080fd5b600660008573ffffffffffffffffffffffffffffffffffffffff1673ffffffffffffffffffffffffffffffffffffffff16815260200190815260200160002060003373ffffffffffffffffffffffffffffffffffffffff1673ffffffffffffffffffffffffffffffffffffffff1681526020019081526020016000205482111561048657600080fd5b81600560008673ffffffffffffffffffffffffffffffffffffffff1673ffffffffffffffffffffffffffffffffffffffff16815260200190815260200160002060008282546104d59190610cdb565b9250508190555081600560008573ffffffffffffffffffffffffffffffffffffffff1673ffffffffffffffffffffffffffffffffffffffff168152602001908152602001600020600082825461052b9190610d0f565b9250508190555081600660008673ffffffffffffffffffffffffffffffffffffffff1673ffffffffffffffffffffffffffffffffffffffff16815260200190815260200160002060003373ffffffffffffffffffffffffffffffffffffffff1673ffffffffffffffffffffffffffffffffffffffff16815260200190815260200160002060008282546105be9190610cdb565b925050819055508273ffffffffffffffffffffffffffffffffffffffff168473ffffffffffffffffffffffffffffffffffffffff167fddf252ad1be2c89b69c2b068fc378daa952ba7f163c4a11628f55a4df523b3ef846040516106229190610af6565b60405180910390a3600190509392505050565b6002805461064290610c7a565b80601f016020809104026020016040519081016040528092919081815260200182805461066e90610c7a565b80156106bb5780601f10610690576101008083540402835291602001916106bb565b820191906000526020600020905b81548152906001019060200180831161069e57829003601f168201915b505050505081565b60056020528060005260406000206000915090505481565b600180546106e890610c7a565b80601f016020809104026020016040519081016040528092919081815260200182805461071490610c7a565b80156107615780601f1061073657610100808354040283529160200191610761565b820191906000526020600020905b81548152906001019060200180831161074457829003601f168201915b505050505081565b600360009054906101000a900473ffffffffffffffffffffffffffffffffffffffff1681565b600081600560003373ffffffffffffffffffffffffffffffffffffffff1673ffffffffffffffffffffffffffffffffffffffff1681526020019081526020016000205410156107dd57600080fd5b81600560003373ffffffffffffffffffffffffffffffffffffffff1673ffffffffffffffffffffffffffffffffffffffff168152602001908152602001600020600082825461082c9190610cdb565b9250508190555081600560008573ffffffffffffffffffffffffffffffffffffffff1673ffffffffffffffffffffffffffffffffffffffff16815260200190815260200160002060008282546108829190610d0f565b925050819055508273ffffffffffffffffffffffffffffffffffffffff163373ffffffffffffffffffffffffffffffffffffffff167fddf252ad1be2c89b69c2b068fc378daa952ba7f163c4a11628f55a4df523b3ef846040516108e69190610af6565b60405180910390a36001905092915050565b6006602052816000526040600020602052806000526040600020600091509150505481565b600081519050919050565b600082825260208201905092915050565b60005b8381101561095757808201518184015260208101905061093c565b83811115610966576000848401525b50505050565b6000601f19601f8301169050919050565b60006109888261091d565b6109928185610928565b93506109a2818560208601610939565b6109ab8161096c565b840191505092915050565b600060208201905081810360008301526109d0818461097d565b905092915050565b600080fd5b600073ffffffffffffffffffffffffffffffffffffffff82169050919050565b6000610a08826109dd565b9050919050565b610a18816109fd565b8114610a2357600080fd5b50565b600081359050610a3581610a0f565b92915050565b6000819050919050565b610a4e81610a3b565b8114610a5957600080fd5b50565b600081359050610a6b81610a45565b92915050565b60008060408385031215610a8857610a876109d8565b5b6000610a9685828601610a26565b9250506020610aa785828601610a5c565b9150509250929050565b60008115159050919050565b610ac681610ab1565b82525050565b6000602082019050610ae16000830184610abd565b92915050565b610af081610a3b565b82525050565b6000602082019050610b0b6000830184610ae7565b92915050565b600080600060608486031215610b2a57610b296109d8565b5b6000610b3886828701610a26565b9350506020610b4986828701610a26565b9250506040610b5a86828701610a5c565b9150509250925092565b600060208284031215610b7a57610b796109d8565b5b6000610b8884828501610a26565b91505092915050565b6000819050919050565b6000610bb6610bb1610bac846109dd565b610b91565b6109dd565b9050919050565b6000610bc882610b9b565b9050919050565b6000610bda82610bbd565b9050919050565b610bea81610bcf565b82525050565b6000602082019050610c056000830184610be1565b92915050565b60008060408385031215610c2257610c216109d8565b5b6000610c3085828601610a26565b9250506020610c4185828601610a26565b9150509250929050565b7f4e487b7100000000000000000000000000000000000000000000000000000000600052602260045260246000fd5b60006002820490506001821680610c9257607f821691505b60208210811415610ca657610ca5610c4b565b5b50919050565b7f4e487b7100000000000000000000000000000000000000000000000000000000600052601160045260246000fd5b6000610ce682610a3b565b9150610cf183610a3b565b925082821015610d0457610d03610cac565b5b828203905092915050565b6000610d1a82610a3b565b9150610d2583610a3b565b9250827fffffffffffffffffffffffffffffffffffffffffffffffffffffffffffffffff03821115610d5a57610d59610cac565b5b82820190509291505056fea2646970667358221220221f43a1a57bb5d815863981e817374e7a198854db3809664e5ece171d5d8c2864736f6c634300080b0033",
  "immutableReferences": {},
  "source": "// SPDX-License-Identifier: UNLICENSED\npragma solidity >=0.4.21 <0.9.0;\n\nimport \"./Wager.sol\";\n\ncontract GGToken {\n    //Name\n    string public name = \"GG Token\";\n    //Symbol\n    string public symbol = \"GG\";\n    //Standard\n    string public standard = \"GG Token v1.0\";\n\n    WagerContract public wagerContract;\n\n    //Total Supply\n    uint256 public totalSupply;\n\n    //Transfer Event\n    event Transfer(address indexed _from, address indexed _to, uint256 _value);\n\n    //Approve Event\n    event Approval(\n        address indexed _owner,\n        address indexed _spender,\n        uint256 _value\n    );\n\n    //Account Balances\n    mapping(address => uint256) public balanceOf;\n    //Allowance\n    mapping(address => mapping(address => uint256)) public allowance;\n\n    //Constructor\n    constructor(uint256 _initialSupply) {\n        //Set initial supply\n        balanceOf[msg.sender] = _initialSupply;\n        totalSupply = _initialSupply;\n        //transfer(address(wagerContract), 100);\n    }\n\n    //Transfer\n    function transfer(address _to, uint256 _value)\n        public\n        returns (bool success)\n    {\n        //Exception if account doesn't have the funds\n        require(balanceOf[msg.sender] >= _value);\n        //Transfer the balance\n        balanceOf[msg.sender] -= _value;\n        balanceOf[_to] += _value;\n        //Emit Transfer Event\n        emit Transfer(msg.sender, _to, _value);\n        //Return a boolean\n        return true;\n    }\n\n    //Delegated Transfer\n\n    //Approve\n    function approve(address _spender, uint256 _value)\n        public\n        returns (bool success)\n    {\n        //Allowance\n        allowance[msg.sender][_spender] = _value;\n        //Approval event\n        emit Approval(msg.sender, _spender, _value);\n        //Return a boolean\n        return true;\n    }\n\n    //TransferFrom\n    function transferFrom(\n        address _from,\n        address _to,\n        uint256 _value\n    ) public returns (bool success) {\n        //Require _from has enough tokens\n        require(_value <= balanceOf[_from]);\n        //Require allowance is big enough\n        require(_value <= allowance[_from][msg.sender]);\n        //Change the balance\n        balanceOf[_from] -= _value;\n        balanceOf[_to] += _value;\n        //Update the allowance\n        allowance[_from][msg.sender] -= _value;\n        //Transfer Event\n        emit Transfer(_from, _to, _value);\n        //Returns a boolean\n        return true;\n    }\n}\n",
  "sourcePath": "/Users/jordanrowley/Desktop/Stuff/GGWagers/contracts/GGToken.sol",
  "compiler": {
    "name": "solc",
    "version": "0.8.11+commit.d7f03943.Emscripten.clang"
  },
  "schemaVersion": "3.4.4",
  "updatedAt": "2021-12-30T23:24:05.562Z",
  "devdoc": {
    "kind": "dev",
    "methods": {},
    "version": 1
  },
  "userdoc": {
    "kind": "user",
    "methods": {},
    "version": 1
  }
}