{
  "contractName": "WagerContract",
  "abi": [
    {
      "inputs": [
        {
          "internalType": "contract GGToken",
          "name": "_tokenContract",
          "type": "address"
        }
      ],
      "stateMutability": "nonpayable",
      "type": "constructor"
    },
    {
      "anonymous": false,
      "inputs": [
        {
          "indexed": false,
          "internalType": "uint256",
          "name": "wagerId",
          "type": "uint256"
        },
        {
          "indexed": false,
          "internalType": "address",
          "name": "competitor",
          "type": "address"
        }
      ],
      "name": "WagerAccepted",
      "type": "event"
    },
    {
      "anonymous": false,
      "inputs": [
        {
          "indexed": false,
          "internalType": "uint256",
          "name": "wagerId",
          "type": "uint256"
        }
      ],
      "name": "WagerCancelled",
      "type": "event"
    },
    {
      "anonymous": false,
      "inputs": [
        {
          "indexed": false,
          "internalType": "uint256",
          "name": "wagerId",
          "type": "uint256"
        },
        {
          "indexed": false,
          "internalType": "address",
          "name": "winnerAccount",
          "type": "address"
        },
        {
          "indexed": false,
          "internalType": "uint256",
          "name": "winnings",
          "type": "uint256"
        }
      ],
      "name": "WagerCompleted",
      "type": "event"
    },
    {
      "anonymous": false,
      "inputs": [
        {
          "indexed": false,
          "internalType": "uint256",
          "name": "id",
          "type": "uint256"
        },
        {
          "indexed": false,
          "internalType": "uint256",
          "name": "validUntil",
          "type": "uint256"
        },
        {
          "indexed": false,
          "internalType": "uint256",
          "name": "wagerAmount",
          "type": "uint256"
        },
        {
          "indexed": false,
          "internalType": "address",
          "name": "creator",
          "type": "address"
        }
      ],
      "name": "WagerCreated",
      "type": "event"
    },
    {
      "inputs": [],
      "name": "tokenContract",
      "outputs": [
        {
          "internalType": "contract GGToken",
          "name": "",
          "type": "address"
        }
      ],
      "stateMutability": "view",
      "type": "function"
    },
    {
      "inputs": [],
      "name": "tokenInterface",
      "outputs": [
        {
          "internalType": "contract IERC20",
          "name": "",
          "type": "address"
        }
      ],
      "stateMutability": "view",
      "type": "function"
    },
    {
      "inputs": [
        {
          "internalType": "uint256",
          "name": "_amount",
          "type": "uint256"
        }
      ],
      "name": "getMoney",
      "outputs": [],
      "stateMutability": "nonpayable",
      "type": "function"
    },
    {
      "inputs": [
        {
          "internalType": "uint256",
          "name": "_wagerAmount",
          "type": "uint256"
        }
      ],
      "name": "createWager",
      "outputs": [],
      "stateMutability": "payable",
      "type": "function"
    },
    {
      "inputs": [
        {
          "internalType": "uint256",
          "name": "_wagerId",
          "type": "uint256"
        }
      ],
      "name": "acceptWager",
      "outputs": [],
      "stateMutability": "payable",
      "type": "function"
    },
    {
      "inputs": [
        {
          "internalType": "uint256",
          "name": "_wagerId",
          "type": "uint256"
        },
        {
          "internalType": "bool",
          "name": "creatorWon",
          "type": "bool"
        }
      ],
      "name": "completeWager",
      "outputs": [],
      "stateMutability": "nonpayable",
      "type": "function"
    },
    {
      "inputs": [
        {
          "internalType": "uint256",
          "name": "_wagerId",
          "type": "uint256"
        }
      ],
      "name": "cancelWager",
      "outputs": [],
      "stateMutability": "nonpayable",
      "type": "function"
    }
  ],
  "bytecode": "0x608060405260006002553480156200001657600080fd5b5060405162001b6638038062001b6683398181016040528101906200003c919062000162565b806000806101000a81548173ffffffffffffffffffffffffffffffffffffffff021916908373ffffffffffffffffffffffffffffffffffffffff16021790555060008054906101000a900473ffffffffffffffffffffffffffffffffffffffff16600160006101000a81548173ffffffffffffffffffffffffffffffffffffffff021916908373ffffffffffffffffffffffffffffffffffffffff1602179055505062000194565b600080fd5b600073ffffffffffffffffffffffffffffffffffffffff82169050919050565b60006200011682620000e9565b9050919050565b60006200012a8262000109565b9050919050565b6200013c816200011d565b81146200014857600080fd5b50565b6000815190506200015c8162000131565b92915050565b6000602082840312156200017b576200017a620000e4565b5b60006200018b848285016200014b565b91505092915050565b6119c280620001a46000396000f3fe6080604052600436106100705760003560e01c806355a373d61161004e57806355a373d6146100e35780639c37d7ea1461010e578063b57db3f71461012a578063f343d6831461015357610070565b806330da3d7e146100755780633262fd9a146100915780634f067dc7146100ba575b600080fd5b61008f600480360381019061008a9190610f2f565b61017e565b005b34801561009d57600080fd5b506100b860048036038101906100b39190610f2f565b61051c565b005b3480156100c657600080fd5b506100e160048036038101906100dc9190610f2f565b6105be565b005b3480156100ef57600080fd5b506100f86108dd565b6040516101059190610fdb565b60405180910390f35b61012860048036038101906101239190610f2f565b610901565b005b34801561013657600080fd5b50610151600480360381019061014c919061102e565b610c0c565b005b34801561015f57600080fd5b50610168610ece565b604051610175919061108f565b60405180910390f35b33818060008054906101000a900473ffffffffffffffffffffffffffffffffffffffff1673ffffffffffffffffffffffffffffffffffffffff166370a08231846040518263ffffffff1660e01b81526004016101da91906110cb565b602060405180830381865afa1580156101f7573d6000803e3d6000fd5b505050506040513d601f19601f8201168201806040525081019061021b91906110fb565b101561025c576040517f08c379a000000000000000000000000000000000000000000000000000000000815260040161025390611185565b60405180910390fd5b60008060009054906101000a900473ffffffffffffffffffffffffffffffffffffffff1673ffffffffffffffffffffffffffffffffffffffff166323b872dd3330876040518463ffffffff1660e01b81526004016102bc939291906111b4565b6020604051808303816000875af11580156102db573d6000803e3d6000fd5b505050506040513d601f19601f820116820180604052508101906102ff9190611200565b905080610341576040517f08c379a000000000000000000000000000000000000000000000000000000000815260040161033890611279565b60405180910390fd5b833414610383576040517f08c379a000000000000000000000000000000000000000000000000000000000815260040161037a906112e5565b60405180910390fd5b6000600254905060006104b04261039a9190611334565b905060006040518060c001604052808481526020018381526020018881526020013373ffffffffffffffffffffffffffffffffffffffff168152602001600015158152602001600015158152509050600381908060018154018082558091505060019003906000526020600020906004020160009091909190915060008201518160000155602082015181600101556040820151816002015560608201518160030160006101000a81548173ffffffffffffffffffffffffffffffffffffffff021916908373ffffffffffffffffffffffffffffffffffffffff16021790555060808201518160030160146101000a81548160ff02191690831515021790555060a08201518160030160156101000a81548160ff02191690831515021790555050506001600260008282546104cf9190611334565b925050819055507fcbef8e4f698b33700a85146473a2b1c8b2f3204def07e953167e58524f3cf11e8383893360405161050b949392919061138a565b60405180910390a150505050505050565b60008054906101000a900473ffffffffffffffffffffffffffffffffffffffff1673ffffffffffffffffffffffffffffffffffffffff1663a9059cbb33836040518363ffffffff1660e01b81526004016105779291906113cf565b6020604051808303816000875af1158015610596573d6000803e3d6000fd5b505050506040513d601f19601f820116820180604052508101906105ba9190611200565b5050565b60001515600382815481106105d6576105d56113f8565b5b906000526020600020906004020160030160149054906101000a900460ff16151514610637576040517f08c379a000000000000000000000000000000000000000000000000000000000815260040161062e90611499565b60405180910390fd5b600015156003828154811061064f5761064e6113f8565b5b906000526020600020906004020160030160159054906101000a900460ff161515146106b0576040517f08c379a00000000000000000000000000000000000000000000000000000000081526004016106a79061152b565b60405180910390fd5b600381815481106106c4576106c36113f8565b5b906000526020600020906004020160030160009054906101000a900473ffffffffffffffffffffffffffffffffffffffff1673ffffffffffffffffffffffffffffffffffffffff163373ffffffffffffffffffffffffffffffffffffffff1614610763576040517f08c379a000000000000000000000000000000000000000000000000000000000815260040161075a906115bd565b60405180910390fd5b600160038281548110610779576107786113f8565b5b906000526020600020906004020160030160156101000a81548160ff02191690831515021790555060008054906101000a900473ffffffffffffffffffffffffffffffffffffffff1673ffffffffffffffffffffffffffffffffffffffff1663a9059cbb33600384815481106107f2576107f16113f8565b5b9060005260206000209060040201600201546040518363ffffffff1660e01b81526004016108219291906113cf565b6020604051808303816000875af1158015610840573d6000803e3d6000fd5b505050506040513d601f19601f820116820180604052508101906108649190611200565b5060006003828154811061087b5761087a6113f8565b5b906000526020600020906004020160030160146101000a81548160ff0219169083151502179055507f64a718ebe173f0fec9fea978b0401922b9ec1a9f243fe952194cbdf204894a23816040516108d291906115dd565b60405180910390a150565b60008054906101000a900473ffffffffffffffffffffffffffffffffffffffff1681565b4260038281548110610916576109156113f8565b5b9060005260206000209060040201600101541015610969576040517f08c379a00000000000000000000000000000000000000000000000000000000081526004016109609061166a565b60405180910390fd5b6000151560038281548110610981576109806113f8565b5b906000526020600020906004020160030160149054906101000a900460ff161515146109e2576040517f08c379a00000000000000000000000000000000000000000000000000000000081526004016109d9906116fc565b60405180910390fd5b600381815481106109f6576109f56113f8565b5b906000526020600020906004020160030160009054906101000a900473ffffffffffffffffffffffffffffffffffffffff1673ffffffffffffffffffffffffffffffffffffffff163373ffffffffffffffffffffffffffffffffffffffff161415610a96576040517f08c379a0000000000000000000000000000000000000000000000000000000008152600401610a8d9061178e565b60405180910390fd5b60038181548110610aaa57610aa96113f8565b5b9060005260206000209060040201600201543414610afd576040517f08c379a0000000000000000000000000000000000000000000000000000000008152600401610af490611820565b60405180910390fd5b6000151560038281548110610b1557610b146113f8565b5b906000526020600020906004020160030160159054906101000a900460ff16151514610b4057600080fd5b336004600083815260200190815260200160002060006101000a81548173ffffffffffffffffffffffffffffffffffffffff021916908373ffffffffffffffffffffffffffffffffffffffff160217905550600160038281548110610ba857610ba76113f8565b5b906000526020600020906004020160030160146101000a81548160ff0219169083151502179055507f33ab279870fef004a0f7d22a52a4e9606726d6fd587d74ea54c3d2d486e161a08133604051610c01929190611840565b60405180910390a150565b6001151560038381548110610c2457610c236113f8565b5b906000526020600020906004020160030160149054906101000a900460ff16151514610c85576040517f08c379a0000000000000000000000000000000000000000000000000000000008152600401610c7c906118db565b60405180910390fd5b60008115610cda5760038381548110610ca157610ca06113f8565b5b906000526020600020906004020160030160009054906101000a900473ffffffffffffffffffffffffffffffffffffffff169050610d11565b6004600084815260200190815260200160002060009054906101000a900473ffffffffffffffffffffffffffffffffffffffff1690505b60008054906101000a900473ffffffffffffffffffffffffffffffffffffffff1673ffffffffffffffffffffffffffffffffffffffff1663a9059cbb8260038681548110610d6257610d616113f8565b5b9060005260206000209060040201600201546002610d8091906118fb565b6040518363ffffffff1660e01b8152600401610d9d9291906113cf565b6020604051808303816000875af1158015610dbc573d6000803e3d6000fd5b505050506040513d601f19601f82011682018060405250810190610de09190611200565b50600160038481548110610df757610df66113f8565b5b906000526020600020906004020160030160156101000a81548160ff021916908315150217905550600060038481548110610e3557610e346113f8565b5b906000526020600020906004020160030160146101000a81548160ff0219169083151502179055507fea032b17c7207cadbb31495af572f0ab6f9003e3288d9c6741df768723d32393838260038681548110610e9457610e936113f8565b5b9060005260206000209060040201600201546002610eb291906118fb565b604051610ec193929190611955565b60405180910390a1505050565b600160009054906101000a900473ffffffffffffffffffffffffffffffffffffffff1681565b600080fd5b6000819050919050565b610f0c81610ef9565b8114610f1757600080fd5b50565b600081359050610f2981610f03565b92915050565b600060208284031215610f4557610f44610ef4565b5b6000610f5384828501610f1a565b91505092915050565b600073ffffffffffffffffffffffffffffffffffffffff82169050919050565b6000819050919050565b6000610fa1610f9c610f9784610f5c565b610f7c565b610f5c565b9050919050565b6000610fb382610f86565b9050919050565b6000610fc582610fa8565b9050919050565b610fd581610fba565b82525050565b6000602082019050610ff06000830184610fcc565b92915050565b60008115159050919050565b61100b81610ff6565b811461101657600080fd5b50565b60008135905061102881611002565b92915050565b6000806040838503121561104557611044610ef4565b5b600061105385828601610f1a565b925050602061106485828601611019565b9150509250929050565b600061107982610fa8565b9050919050565b6110898161106e565b82525050565b60006020820190506110a46000830184611080565b92915050565b60006110b582610f5c565b9050919050565b6110c5816110aa565b82525050565b60006020820190506110e060008301846110bc565b92915050565b6000815190506110f581610f03565b92915050565b60006020828403121561111157611110610ef4565b5b600061111f848285016110e6565b91505092915050565b600082825260208201905092915050565b7f496e73756666696369656e742066756e64732e00000000000000000000000000600082015250565b600061116f601383611128565b915061117a82611139565b602082019050919050565b6000602082019050818103600083015261119e81611162565b9050919050565b6111ae81610ef9565b82525050565b60006060820190506111c960008301866110bc565b6111d660208301856110bc565b6111e360408301846111a5565b949350505050565b6000815190506111fa81611002565b92915050565b60006020828403121561121657611215610ef4565b5b6000611224848285016111eb565b91505092915050565b7f5472616e7366657220756e7375636365737366756c0000000000000000000000600082015250565b6000611263601583611128565b915061126e8261122d565b602082019050919050565b6000602082019050818103600083015261129281611256565b9050919050565b7f457861637420776167657220616d6f756e74206e6f7420706179656400000000600082015250565b60006112cf601c83611128565b91506112da82611299565b602082019050919050565b600060208201905081810360008301526112fe816112c2565b9050919050565b7f4e487b7100000000000000000000000000000000000000000000000000000000600052601160045260246000fd5b600061133f82610ef9565b915061134a83610ef9565b9250827fffffffffffffffffffffffffffffffffffffffffffffffffffffffffffffffff0382111561137f5761137e611305565b5b828201905092915050565b600060808201905061139f60008301876111a5565b6113ac60208301866111a5565b6113b960408301856111a5565b6113c660608301846110bc565b95945050505050565b60006040820190506113e460008301856110bc565b6113f160208301846111a5565b9392505050565b7f4e487b7100000000000000000000000000000000000000000000000000000000600052603260045260246000fd5b7f5761676572732063616e6e6f742062652063616e63656c6c6564207768696c6560008201527f2061637469766500000000000000000000000000000000000000000000000000602082015250565b6000611483602783611128565b915061148e82611427565b604082019050919050565b600060208201905081810360008301526114b281611476565b9050919050565b7f5761676572732063616e6e6f742062652063616e63656c6c6564206f6e63652060008201527f636f6d706c657465000000000000000000000000000000000000000000000000602082015250565b6000611515602883611128565b9150611520826114b9565b604082019050919050565b6000602082019050818103600083015261154481611508565b9050919050565b7f43616e206f6e6c792063616e63656c207761676572732063726561746564206260008201527f7920796f75000000000000000000000000000000000000000000000000000000602082015250565b60006115a7602583611128565b91506115b28261154b565b604082019050919050565b600060208201905081810360008301526115d68161159a565b9050919050565b60006020820190506115f260008301846111a5565b92915050565b7f5761676572206d7573742062652061636365707465642077697468696e20323060008201527f206d696e75746573000000000000000000000000000000000000000000000000602082015250565b6000611654602883611128565b915061165f826115f8565b604082019050919050565b6000602082019050818103600083015261168381611647565b9050919050565b7f5761676572732063616e6e6f742062652061636365707465642069662061637460008201527f6976650000000000000000000000000000000000000000000000000000000000602082015250565b60006116e6602383611128565b91506116f18261168a565b604082019050919050565b60006020820190508181036000830152611715816116d9565b9050919050565b7f43726561746f722063616e6e6f74206265207468652073616d6520617320636f60008201527f6d70657469746f72000000000000000000000000000000000000000000000000602082015250565b6000611778602883611128565b91506117838261171c565b604082019050919050565b600060208201905081810360008301526117a78161176b565b9050919050565b7f436f727265637420616d6f756e74206d75737420626520706179656420746f2060008201527f6163636570742077616765720000000000000000000000000000000000000000602082015250565b600061180a602c83611128565b9150611815826117ae565b604082019050919050565b60006020820190508181036000830152611839816117fd565b9050919050565b600060408201905061185560008301856111a5565b61186260208301846110bc565b9392505050565b7f5761676572732063616e6e6f7420626520636f6d706c6574656420696620696e60008201527f6163746976650000000000000000000000000000000000000000000000000000602082015250565b60006118c5602683611128565b91506118d082611869565b604082019050919050565b600060208201905081810360008301526118f4816118b8565b9050919050565b600061190682610ef9565b915061191183610ef9565b9250817fffffffffffffffffffffffffffffffffffffffffffffffffffffffffffffffff048311821515161561194a57611949611305565b5b828202905092915050565b600060608201905061196a60008301866111a5565b61197760208301856110bc565b61198460408301846111a5565b94935050505056fea264697066735822122089c8c3328018b89cacbde3ed60a4d00f136255c3a666508eb8ce4b5e8353d20b64736f6c634300080b0033",
  "immutableReferences": {},
  "source": "// SPDX-License-Identifier: UNLICENSED\npragma solidity >=0.4.21 <0.9.0;\n\nimport \"./GGToken.sol\";\nimport \"@openzeppelin/contracts/token/ERC20/IERC20.sol\";\n\ncontract WagerContract {\n    GGToken public tokenContract;\n    IERC20 public tokenInterface;\n    uint256 wagerId = 0;\n    Wager[] wagers;\n    mapping(uint256 => address) competitors;\n\n    constructor(GGToken _tokenContract) {\n        tokenContract = _tokenContract;\n        tokenInterface = IERC20(address(tokenContract));\n        //tokenContract.balanceOf(msg.sender) = 1000;\n        //tokenContract.transfer(msg.sender, 1000);\n    }\n\n    modifier hasFunds(address account, uint256 amount) {\n        require(\n            tokenContract.balanceOf(account) >= amount,\n            \"Insufficient funds.\"\n        );\n        _;\n    }\n\n    struct Wager {\n        uint256 id;\n        uint256 validUntil;\n        uint256 wagerAmount;\n        address creator;\n        bool isActive;\n        bool completed;\n    }\n\n    event WagerCreated(\n        uint256 id,\n        uint256 validUntil,\n        uint256 wagerAmount,\n        address creator\n    );\n    event WagerAccepted(uint256 wagerId, address competitor);\n    event WagerCompleted(\n        uint256 wagerId,\n        address winnerAccount,\n        uint256 winnings\n    );\n    event WagerCancelled(uint256 wagerId);\n\n    function getMoney(uint256 _amount) public {\n        tokenContract.transfer(msg.sender, _amount);\n        //tokenContract.balanceOf(msg.sender) += _amount;\n    }\n\n    // Inistatiate new Wager object and push it to the 'wagers' array.\n    function createWager(uint256 _wagerAmount)\n        public\n        payable\n        hasFunds(msg.sender, _wagerAmount)\n    {\n        bool success = tokenContract.transferFrom(\n            msg.sender,\n            address(this),\n            _wagerAmount\n        );\n        require(success, \"Transfer unsuccessful\");\n        // Assert that the exact wager amount has been payed\n        require(msg.value == _wagerAmount, \"Exact wager amount not payed\");\n        // Take the wager amount out of the creator's balance\n        //tokenContract.balanceOf(msg.sender) -= _wagerAmount;\n\n        // Get copy of wagerId rather than assigning the memory address\n        uint256 newWagerId = wagerId;\n        // Calculate the blocktime in 5 minutes time (wager timeout)\n        uint256 newValidUntil = block.timestamp + (20 * 1 minutes);\n        // Instatiate new Wager object\n        Wager memory newWager = Wager({\n            id: newWagerId,\n            validUntil: newValidUntil,\n            wagerAmount: _wagerAmount,\n            creator: msg.sender,\n            isActive: false,\n            completed: false\n        });\n        // Push new Wager object to the 'wagers' array\n        wagers.push(newWager);\n        // Increment the global wager ID variable by 1\n        wagerId += 1;\n        // Emit an event to log the creation of the wager\n        emit WagerCreated(newWagerId, newValidUntil, _wagerAmount, msg.sender);\n    }\n\n    // Competitor accepts a wager\n    function acceptWager(uint256 _wagerId) public payable {\n        // Wager must be accepted within 20 minutes\n        require(\n            wagers[_wagerId].validUntil >= block.timestamp,\n            \"Wager must be accepted within 20 minutes\"\n        );\n        // Wagers cannot be accepted if active\n        require(\n            wagers[_wagerId].isActive == false,\n            \"Wagers cannot be accepted if active\"\n        );\n        // Creator cannot be the same as competitor\n        require(\n            msg.sender != wagers[_wagerId].creator,\n            \"Creator cannot be the same as competitor\"\n        );\n        // Right amount must be payed in\n        require(\n            msg.value == wagers[_wagerId].wagerAmount,\n            \"Correct amount must be payed to accept wager\"\n        );\n        // Assert that the exact wager amount has been payed                                            Must revisit when refactoring to separate contracts\n        //require(msg.value == wagers[_wagerId].wagerAmount, \"Exact wager amount not payed\");\n        // The accepted wager must be active\n        require(wagers[_wagerId].completed == false);\n        // Take the wager amount out of the creator's balance\n        //tokenContract.balanceOf(msg.sender) -= wagers[_wagerId].wagerAmount;\n        // Map the competitor's address to the Wager object\n        competitors[_wagerId] = msg.sender;\n        // Set the wager to 'active'\n        wagers[_wagerId].isActive = true;\n        // Emit an event to log the acceptance of the wager\n        emit WagerAccepted(_wagerId, msg.sender);\n    }\n\n    // A wager is completed and the winnings should be payed out\n    function completeWager(uint256 _wagerId, bool creatorWon) public {\n        // Wagers cannot be completed if inactive\n        require(\n            wagers[_wagerId].isActive == true,\n            \"Wagers cannot be completed if inactive\"\n        );\n        // Instatiate winner account for scope\n        address _winnerAccount;\n        if (creatorWon) {\n            // Set winner account to creator account if the creator won\n            //_winnerAccount = payable(wagers[_wagerId].creator);\n            _winnerAccount = wagers[_wagerId].creator;\n        } else {\n            // Set winner account to competitor account if the competitor won\n            //_winnerAccount = payable(competitors[_wagerId]);\n            _winnerAccount = competitors[_wagerId];\n        }\n        // Make the winnerAccount payable\n        //address payable payableWinner = _winnerAccount;\n        // Add winnings to winner's balance\n        // tokenContract.balanceOf(_winnerAccount) += (2 *\n        //     wagers[_wagerId].wagerAmount);\n        tokenContract.transfer(\n            _winnerAccount,\n            (2 * wagers[_wagerId].wagerAmount)\n        );\n        // Set the wager to 'completed'\n        wagers[_wagerId].completed = true;\n        // Set the wager to 'inactive'\n        wagers[_wagerId].isActive = false;\n        // Emit an event to log the completion of the wager\n        emit WagerCompleted(\n            _wagerId,\n            _winnerAccount,\n            (2 * wagers[_wagerId].wagerAmount)\n        );\n    }\n\n    // A wager is cancelled and the wager amount is payed back to the creator\n    function cancelWager(uint256 _wagerId) public {\n        // Wagers cannot be cancelled while active\n        require(\n            wagers[_wagerId].isActive == false,\n            \"Wagers cannot be cancelled while active\"\n        );\n        // Wagers cannot be cancelled once complete\n        require(\n            wagers[_wagerId].completed == false,\n            \"Wagers cannot be cancelled once complete\"\n        );\n        // Only the creator can cancel a wager\n        require(\n            msg.sender == wagers[_wagerId].creator,\n            \"Can only cancel wagers created by you\"\n        );\n        // Set the wager to 'completed'\n        wagers[_wagerId].completed = true;\n        // Pay the creator back the wager amount\n        //tokenContract.balanceOf(msg.sender) += wagers[_wagerId].wagerAmount;\n        tokenContract.transfer(msg.sender, wagers[_wagerId].wagerAmount);\n        // Set the wager to 'inactive'\n        wagers[_wagerId].isActive = false;\n        // Emit an event to log the cancellation of the wager\n        emit WagerCancelled(_wagerId);\n    }\n}\n",
  "sourcePath": "/Users/jordanrowley/Desktop/Stuff/GGWagers/contracts/Wager.sol",
  "compiler": {
    "name": "solc",
    "version": "0.8.11+commit.d7f03943.Emscripten.clang"
  },
  "schemaVersion": "3.4.4",
  "updatedAt": "2021-12-30T23:24:05.614Z",
  "devdoc": {
    "kind": "dev",
    "methods": {},
    "version": 1
  },
  "userdoc": {
    "kind": "user",
    "methods": {},
    "version": 1
  }
}