{
  "contractName": "WagerContract",
  "abi": [
    {
      "inputs": [
        {
          "internalType": "contract GGToken",
          "name": "_tokenContract",
          "type": "address"
        }
      ],
      "stateMutability": "nonpayable",
      "type": "constructor"
    },
    {
      "anonymous": false,
      "inputs": [
        {
          "indexed": false,
          "internalType": "uint256",
          "name": "wagerId",
          "type": "uint256"
        },
        {
          "indexed": false,
          "internalType": "address",
          "name": "competitor",
          "type": "address"
        }
      ],
      "name": "WagerAccepted",
      "type": "event"
    },
    {
      "anonymous": false,
      "inputs": [
        {
          "indexed": false,
          "internalType": "uint256",
          "name": "wagerId",
          "type": "uint256"
        }
      ],
      "name": "WagerCancelled",
      "type": "event"
    },
    {
      "anonymous": false,
      "inputs": [
        {
          "indexed": false,
          "internalType": "uint256",
          "name": "wagerId",
          "type": "uint256"
        },
        {
          "indexed": false,
          "internalType": "address",
          "name": "winnerAccount",
          "type": "address"
        },
        {
          "indexed": false,
          "internalType": "uint256",
          "name": "winnings",
          "type": "uint256"
        }
      ],
      "name": "WagerCompleted",
      "type": "event"
    },
    {
      "anonymous": false,
      "inputs": [
        {
          "indexed": false,
          "internalType": "uint256",
          "name": "id",
          "type": "uint256"
        },
        {
          "indexed": false,
          "internalType": "uint256",
          "name": "validUntil",
          "type": "uint256"
        },
        {
          "indexed": false,
          "internalType": "uint256",
          "name": "wagerAmount",
          "type": "uint256"
        },
        {
          "indexed": false,
          "internalType": "address",
          "name": "creator",
          "type": "address"
        }
      ],
      "name": "WagerCreated",
      "type": "event"
    },
    {
      "inputs": [],
      "name": "tokenContract",
      "outputs": [
        {
          "internalType": "contract GGToken",
          "name": "",
          "type": "address"
        }
      ],
      "stateMutability": "view",
      "type": "function",
      "constant": true
    },
    {
      "inputs": [
        {
          "internalType": "uint256",
          "name": "_amount",
          "type": "uint256"
        }
      ],
      "name": "getMoney",
      "outputs": [],
      "stateMutability": "nonpayable",
      "type": "function"
    },
    {
      "inputs": [
        {
          "internalType": "uint256",
          "name": "_wagerAmount",
          "type": "uint256"
        }
      ],
      "name": "createWager",
      "outputs": [],
      "stateMutability": "payable",
      "type": "function",
      "payable": true
    },
    {
      "inputs": [
        {
          "internalType": "uint256",
          "name": "_wagerId",
          "type": "uint256"
        }
      ],
      "name": "acceptWager",
      "outputs": [],
      "stateMutability": "payable",
      "type": "function",
      "payable": true
    },
    {
      "inputs": [
        {
          "internalType": "uint256",
          "name": "_wagerId",
          "type": "uint256"
        },
        {
          "internalType": "bool",
          "name": "creatorWon",
          "type": "bool"
        }
      ],
      "name": "completeWager",
      "outputs": [],
      "stateMutability": "nonpayable",
      "type": "function"
    },
    {
      "inputs": [
        {
          "internalType": "uint256",
          "name": "_wagerId",
          "type": "uint256"
        }
      ],
      "name": "cancelWager",
      "outputs": [],
      "stateMutability": "nonpayable",
      "type": "function"
    }
  ],
  "bytecode": "0x608060405260006001553480156200001657600080fd5b50604051620018d2380380620018d283398181016040528101906200003c919062000101565b806000806101000a81548173ffffffffffffffffffffffffffffffffffffffff021916908373ffffffffffffffffffffffffffffffffffffffff1602179055505062000133565b600080fd5b600073ffffffffffffffffffffffffffffffffffffffff82169050919050565b6000620000b58262000088565b9050919050565b6000620000c982620000a8565b9050919050565b620000db81620000bc565b8114620000e757600080fd5b50565b600081519050620000fb81620000d0565b92915050565b6000602082840312156200011a576200011962000083565b5b60006200012a84828501620000ea565b91505092915050565b61178f80620001436000396000f3fe6080604052600436106100555760003560e01c806330da3d7e1461005a5780633262fd9a146100765780634f067dc71461009f57806355a373d6146100c85780639c37d7ea146100f3578063b57db3f71461010f575b600080fd5b610074600480360381019061006f9190610ddb565b610138565b005b34801561008257600080fd5b5061009d60048036038101906100989190610ddb565b6103ef565b005b3480156100ab57600080fd5b506100c660048036038101906100c19190610ddb565b610491565b005b3480156100d457600080fd5b506100dd6107b0565b6040516100ea9190610e87565b60405180910390f35b61010d60048036038101906101089190610ddb565b6107d4565b005b34801561011b57600080fd5b5061013660048036038101906101319190610eda565b610ade565b005b33818060008054906101000a900473ffffffffffffffffffffffffffffffffffffffff1673ffffffffffffffffffffffffffffffffffffffff166370a08231846040518263ffffffff1660e01b81526004016101949190610f3b565b602060405180830381865afa1580156101b1573d6000803e3d6000fd5b505050506040513d601f19601f820116820180604052508101906101d59190610f6b565b1015610216576040517f08c379a000000000000000000000000000000000000000000000000000000000815260040161020d90610ff5565b60405180910390fd5b823414610258576040517f08c379a000000000000000000000000000000000000000000000000000000000815260040161024f90611061565b60405180910390fd5b6000600154905060006104b04261026f91906110b0565b905060006040518060c001604052808481526020018381526020018781526020013373ffffffffffffffffffffffffffffffffffffffff168152602001600015158152602001600015158152509050600281908060018154018082558091505060019003906000526020600020906004020160009091909190915060008201518160000155602082015181600101556040820151816002015560608201518160030160006101000a81548173ffffffffffffffffffffffffffffffffffffffff021916908373ffffffffffffffffffffffffffffffffffffffff16021790555060808201518160030160146101000a81548160ff02191690831515021790555060a08201518160030160156101000a81548160ff021916908315150217905550505060018060008282546103a391906110b0565b925050819055507fcbef8e4f698b33700a85146473a2b1c8b2f3204def07e953167e58524f3cf11e838388336040516103df9493929190611115565b60405180910390a1505050505050565b60008054906101000a900473ffffffffffffffffffffffffffffffffffffffff1673ffffffffffffffffffffffffffffffffffffffff1663a9059cbb33836040518363ffffffff1660e01b815260040161044a92919061115a565b6020604051808303816000875af1158015610469573d6000803e3d6000fd5b505050506040513d601f19601f8201168201806040525081019061048d9190611198565b5050565b60001515600282815481106104a9576104a86111c5565b5b906000526020600020906004020160030160149054906101000a900460ff1615151461050a576040517f08c379a000000000000000000000000000000000000000000000000000000000815260040161050190611266565b60405180910390fd5b6000151560028281548110610522576105216111c5565b5b906000526020600020906004020160030160159054906101000a900460ff16151514610583576040517f08c379a000000000000000000000000000000000000000000000000000000000815260040161057a906112f8565b60405180910390fd5b60028181548110610597576105966111c5565b5b906000526020600020906004020160030160009054906101000a900473ffffffffffffffffffffffffffffffffffffffff1673ffffffffffffffffffffffffffffffffffffffff163373ffffffffffffffffffffffffffffffffffffffff1614610636576040517f08c379a000000000000000000000000000000000000000000000000000000000815260040161062d9061138a565b60405180910390fd5b60016002828154811061064c5761064b6111c5565b5b906000526020600020906004020160030160156101000a81548160ff02191690831515021790555060008054906101000a900473ffffffffffffffffffffffffffffffffffffffff1673ffffffffffffffffffffffffffffffffffffffff1663a9059cbb33600284815481106106c5576106c46111c5565b5b9060005260206000209060040201600201546040518363ffffffff1660e01b81526004016106f492919061115a565b6020604051808303816000875af1158015610713573d6000803e3d6000fd5b505050506040513d601f19601f820116820180604052508101906107379190611198565b5060006002828154811061074e5761074d6111c5565b5b906000526020600020906004020160030160146101000a81548160ff0219169083151502179055507f64a718ebe173f0fec9fea978b0401922b9ec1a9f243fe952194cbdf204894a23816040516107a591906113aa565b60405180910390a150565b60008054906101000a900473ffffffffffffffffffffffffffffffffffffffff1681565b42600282815481106107e9576107e86111c5565b5b9060005260206000209060040201600101541161083b576040517f08c379a000000000000000000000000000000000000000000000000000000000815260040161083290611437565b60405180910390fd5b6000151560028281548110610853576108526111c5565b5b906000526020600020906004020160030160149054906101000a900460ff161515146108b4576040517f08c379a00000000000000000000000000000000000000000000000000000000081526004016108ab906114c9565b60405180910390fd5b600281815481106108c8576108c76111c5565b5b906000526020600020906004020160030160009054906101000a900473ffffffffffffffffffffffffffffffffffffffff1673ffffffffffffffffffffffffffffffffffffffff163373ffffffffffffffffffffffffffffffffffffffff161415610968576040517f08c379a000000000000000000000000000000000000000000000000000000000815260040161095f9061155b565b60405180910390fd5b6002818154811061097c5761097b6111c5565b5b90600052602060002090600402016002015434146109cf576040517f08c379a00000000000000000000000000000000000000000000000000000000081526004016109c6906115ed565b60405180910390fd5b60001515600282815481106109e7576109e66111c5565b5b906000526020600020906004020160030160159054906101000a900460ff16151514610a1257600080fd5b336003600083815260200190815260200160002060006101000a81548173ffffffffffffffffffffffffffffffffffffffff021916908373ffffffffffffffffffffffffffffffffffffffff160217905550600160028281548110610a7a57610a796111c5565b5b906000526020600020906004020160030160146101000a81548160ff0219169083151502179055507f33ab279870fef004a0f7d22a52a4e9606726d6fd587d74ea54c3d2d486e161a08133604051610ad392919061160d565b60405180910390a150565b6001151560028381548110610af657610af56111c5565b5b906000526020600020906004020160030160149054906101000a900460ff16151514610b57576040517f08c379a0000000000000000000000000000000000000000000000000000000008152600401610b4e906116a8565b60405180910390fd5b60008115610bac5760028381548110610b7357610b726111c5565b5b906000526020600020906004020160030160009054906101000a900473ffffffffffffffffffffffffffffffffffffffff169050610be3565b6003600084815260200190815260200160002060009054906101000a900473ffffffffffffffffffffffffffffffffffffffff1690505b60008054906101000a900473ffffffffffffffffffffffffffffffffffffffff1673ffffffffffffffffffffffffffffffffffffffff1663a9059cbb8260028681548110610c3457610c336111c5565b5b9060005260206000209060040201600201546002610c5291906116c8565b6040518363ffffffff1660e01b8152600401610c6f92919061115a565b6020604051808303816000875af1158015610c8e573d6000803e3d6000fd5b505050506040513d601f19601f82011682018060405250810190610cb29190611198565b50600160028481548110610cc957610cc86111c5565b5b906000526020600020906004020160030160156101000a81548160ff021916908315150217905550600060028481548110610d0757610d066111c5565b5b906000526020600020906004020160030160146101000a81548160ff0219169083151502179055507fea032b17c7207cadbb31495af572f0ab6f9003e3288d9c6741df768723d32393838260028681548110610d6657610d656111c5565b5b9060005260206000209060040201600201546002610d8491906116c8565b604051610d9393929190611722565b60405180910390a1505050565b600080fd5b6000819050919050565b610db881610da5565b8114610dc357600080fd5b50565b600081359050610dd581610daf565b92915050565b600060208284031215610df157610df0610da0565b5b6000610dff84828501610dc6565b91505092915050565b600073ffffffffffffffffffffffffffffffffffffffff82169050919050565b6000819050919050565b6000610e4d610e48610e4384610e08565b610e28565b610e08565b9050919050565b6000610e5f82610e32565b9050919050565b6000610e7182610e54565b9050919050565b610e8181610e66565b82525050565b6000602082019050610e9c6000830184610e78565b92915050565b60008115159050919050565b610eb781610ea2565b8114610ec257600080fd5b50565b600081359050610ed481610eae565b92915050565b60008060408385031215610ef157610ef0610da0565b5b6000610eff85828601610dc6565b9250506020610f1085828601610ec5565b9150509250929050565b6000610f2582610e08565b9050919050565b610f3581610f1a565b82525050565b6000602082019050610f506000830184610f2c565b92915050565b600081519050610f6581610daf565b92915050565b600060208284031215610f8157610f80610da0565b5b6000610f8f84828501610f56565b91505092915050565b600082825260208201905092915050565b7f496e73756666696369656e742066756e64732e00000000000000000000000000600082015250565b6000610fdf601383610f98565b9150610fea82610fa9565b602082019050919050565b6000602082019050818103600083015261100e81610fd2565b9050919050565b7f457861637420776167657220616d6f756e74206e6f7420706179656400000000600082015250565b600061104b601c83610f98565b915061105682611015565b602082019050919050565b6000602082019050818103600083015261107a8161103e565b9050919050565b7f4e487b7100000000000000000000000000000000000000000000000000000000600052601160045260246000fd5b60006110bb82610da5565b91506110c683610da5565b9250827fffffffffffffffffffffffffffffffffffffffffffffffffffffffffffffffff038211156110fb576110fa611081565b5b828201905092915050565b61110f81610da5565b82525050565b600060808201905061112a6000830187611106565b6111376020830186611106565b6111446040830185611106565b6111516060830184610f2c565b95945050505050565b600060408201905061116f6000830185610f2c565b61117c6020830184611106565b9392505050565b60008151905061119281610eae565b92915050565b6000602082840312156111ae576111ad610da0565b5b60006111bc84828501611183565b91505092915050565b7f4e487b7100000000000000000000000000000000000000000000000000000000600052603260045260246000fd5b7f5761676572732063616e6e6f742062652063616e63656c6c6564207768696c6560008201527f2061637469766500000000000000000000000000000000000000000000000000602082015250565b6000611250602783610f98565b915061125b826111f4565b604082019050919050565b6000602082019050818103600083015261127f81611243565b9050919050565b7f5761676572732063616e6e6f742062652063616e63656c6c6564206f6e63652060008201527f636f6d706c657465000000000000000000000000000000000000000000000000602082015250565b60006112e2602883610f98565b91506112ed82611286565b604082019050919050565b60006020820190508181036000830152611311816112d5565b9050919050565b7f43616e206f6e6c792063616e63656c207761676572732063726561746564206260008201527f7920796f75000000000000000000000000000000000000000000000000000000602082015250565b6000611374602583610f98565b915061137f82611318565b604082019050919050565b600060208201905081810360008301526113a381611367565b9050919050565b60006020820190506113bf6000830184611106565b92915050565b7f5761676572206d7573742062652061636365707465642077697468696e20323060008201527f206d696e75746573000000000000000000000000000000000000000000000000602082015250565b6000611421602883610f98565b915061142c826113c5565b604082019050919050565b6000602082019050818103600083015261145081611414565b9050919050565b7f5761676572732063616e6e6f742062652061636365707465642069662061637460008201527f6976650000000000000000000000000000000000000000000000000000000000602082015250565b60006114b3602383610f98565b91506114be82611457565b604082019050919050565b600060208201905081810360008301526114e2816114a6565b9050919050565b7f43726561746f722063616e6e6f74206265207468652073616d6520617320636f60008201527f6d70657469746f72000000000000000000000000000000000000000000000000602082015250565b6000611545602883610f98565b9150611550826114e9565b604082019050919050565b6000602082019050818103600083015261157481611538565b9050919050565b7f436f727265637420616d6f756e74206d75737420626520706179656420746f2060008201527f6163636570742077616765720000000000000000000000000000000000000000602082015250565b60006115d7602c83610f98565b91506115e28261157b565b604082019050919050565b60006020820190508181036000830152611606816115ca565b9050919050565b60006040820190506116226000830185611106565b61162f6020830184610f2c565b9392505050565b7f5761676572732063616e6e6f7420626520636f6d706c6574656420696620696e60008201527f6163746976650000000000000000000000000000000000000000000000000000602082015250565b6000611692602683610f98565b915061169d82611636565b604082019050919050565b600060208201905081810360008301526116c181611685565b9050919050565b60006116d382610da5565b91506116de83610da5565b9250817fffffffffffffffffffffffffffffffffffffffffffffffffffffffffffffffff048311821515161561171757611716611081565b5b828202905092915050565b60006060820190506117376000830186611106565b6117446020830185610f2c565b6117516040830184611106565b94935050505056fea264697066735822122034ab101c965d2d64d644efb1d387adbe38342d072aa459183cf305e8c3ff2a5c64736f6c634300080b0033",
  "immutableReferences": {},
  "source": "// SPDX-License-Identifier: UNLICENSED\npragma solidity >=0.4.21 <0.9.0;\n\nimport \"./GGToken.sol\";\n\ncontract WagerContract {\n    GGToken public tokenContract;\n    uint256 wagerId = 0;\n    Wager[] wagers;\n    mapping(uint256 => address) competitors;\n\n    constructor(GGToken _tokenContract) public {\n        tokenContract = _tokenContract;\n        //tokenContract.balanceOf(msg.sender) = 1000;\n        //tokenContract.transfer(msg.sender, 1000);\n    }\n\n    modifier hasFunds(address account, uint256 amount) {\n        require(\n            tokenContract.balanceOf(account) >= amount,\n            \"Insufficient funds.\"\n        );\n        _;\n    }\n\n    struct Wager {\n        uint256 id;\n        uint256 validUntil;\n        uint256 wagerAmount;\n        address creator;\n        bool isActive;\n        bool completed;\n    }\n\n    event WagerCreated(\n        uint256 id,\n        uint256 validUntil,\n        uint256 wagerAmount,\n        address creator\n    );\n    event WagerAccepted(uint256 wagerId, address competitor);\n    event WagerCompleted(\n        uint256 wagerId,\n        address winnerAccount,\n        uint256 winnings\n    );\n    event WagerCancelled(uint256 wagerId);\n\n    function getMoney(uint256 _amount) public {\n        tokenContract.transfer(msg.sender, _amount);\n        //tokenContract.balanceOf(msg.sender) += _amount;\n    }\n\n    // Inistatiate new Wager object and push it to the 'wagers' array.\n    function createWager(uint256 _wagerAmount)\n        public\n        payable\n        hasFunds(msg.sender, _wagerAmount)\n    {\n        // Assert that the exact wager amount has been payed\n        require(msg.value == _wagerAmount, \"Exact wager amount not payed\");\n        // Take the wager amount out of the creator's balance\n        //tokenContract.balanceOf(msg.sender) -= _wagerAmount;\n\n        // Get copy of wagerId rather than assigning the memory address\n        uint256 newWagerId = wagerId;\n        // Calculate the blocktime in 5 minutes time (wager timeout)\n        uint256 newValidUntil = block.timestamp + (20 * 1 minutes);\n        // Instatiate new Wager object\n        Wager memory newWager = Wager({\n            id: newWagerId,\n            validUntil: newValidUntil,\n            wagerAmount: _wagerAmount,\n            creator: msg.sender,\n            isActive: false,\n            completed: false\n        });\n        // Push new Wager object to the 'wagers' array\n        wagers.push(newWager);\n        // Increment the global wager ID variable by 1\n        wagerId += 1;\n        // Emit an event to log the creation of the wager\n        emit WagerCreated(newWagerId, newValidUntil, _wagerAmount, msg.sender);\n    }\n\n    // Competitor accepts a wager\n    function acceptWager(uint256 _wagerId) public payable {\n        // Wager must be accepted within 20 minutes\n        require(\n            wagers[_wagerId].validUntil > block.timestamp,\n            \"Wager must be accepted within 20 minutes\"\n        );\n        // Wagers cannot be accepted if active\n        require(\n            wagers[_wagerId].isActive == false,\n            \"Wagers cannot be accepted if active\"\n        );\n        // Creator cannot be the same as competitor\n        require(\n            msg.sender != wagers[_wagerId].creator,\n            \"Creator cannot be the same as competitor\"\n        );\n        // Right amount must be payed in\n        require(\n            msg.value == wagers[_wagerId].wagerAmount,\n            \"Correct amount must be payed to accept wager\"\n        );\n        // Assert that the exact wager amount has been payed                                            Must revisit when refactoring to separate contracts\n        //require(msg.value == wagers[_wagerId].wagerAmount, \"Exact wager amount not payed\");\n        // The accepted wager must be active\n        require(wagers[_wagerId].completed == false);\n        // Take the wager amount out of the creator's balance\n        //tokenContract.balanceOf(msg.sender) -= wagers[_wagerId].wagerAmount;\n        // Map the competitor's address to the Wager object\n        competitors[_wagerId] = msg.sender;\n        // Set the wager to 'active'\n        wagers[_wagerId].isActive = true;\n        // Emit an event to log the acceptance of the wager\n        emit WagerAccepted(_wagerId, msg.sender);\n    }\n\n    // A wager is completed and the winnings should be payed out\n    function completeWager(uint256 _wagerId, bool creatorWon) public {\n        // Wagers cannot be completed if inactive\n        require(\n            wagers[_wagerId].isActive == true,\n            \"Wagers cannot be completed if inactive\"\n        );\n        // Instatiate winner account for scope\n        address _winnerAccount;\n        if (creatorWon) {\n            // Set winner account to creator account if the creator won\n            //_winnerAccount = payable(wagers[_wagerId].creator);\n            _winnerAccount = wagers[_wagerId].creator;\n        } else {\n            // Set winner account to competitor account if the competitor won\n            //_winnerAccount = payable(competitors[_wagerId]);\n            _winnerAccount = competitors[_wagerId];\n        }\n        // Make the winnerAccount payable\n        //address payable payableWinner = _winnerAccount;\n        // Add winnings to winner's balance\n        // tokenContract.balanceOf(_winnerAccount) += (2 *\n        //     wagers[_wagerId].wagerAmount);\n        tokenContract.transfer(\n            _winnerAccount,\n            (2 * wagers[_wagerId].wagerAmount)\n        );\n        // Set the wager to 'completed'\n        wagers[_wagerId].completed = true;\n        // Set the wager to 'inactive'\n        wagers[_wagerId].isActive = false;\n        // Emit an event to log the completion of the wager\n        emit WagerCompleted(\n            _wagerId,\n            _winnerAccount,\n            (2 * wagers[_wagerId].wagerAmount)\n        );\n    }\n\n    // A wager is cancelled and the wager amount is payed back to the creator\n    function cancelWager(uint256 _wagerId) public {\n        // Wagers cannot be cancelled while active\n        require(\n            wagers[_wagerId].isActive == false,\n            \"Wagers cannot be cancelled while active\"\n        );\n        // Wagers cannot be cancelled once complete\n        require(\n            wagers[_wagerId].completed == false,\n            \"Wagers cannot be cancelled once complete\"\n        );\n        // Only the creator can cancel a wager\n        require(\n            msg.sender == wagers[_wagerId].creator,\n            \"Can only cancel wagers created by you\"\n        );\n        // Set the wager to 'completed'\n        wagers[_wagerId].completed = true;\n        // Pay the creator back the wager amount\n        //tokenContract.balanceOf(msg.sender) += wagers[_wagerId].wagerAmount;\n        tokenContract.transfer(msg.sender, wagers[_wagerId].wagerAmount);\n        // Set the wager to 'inactive'\n        wagers[_wagerId].isActive = false;\n        // Emit an event to log the cancellation of the wager\n        emit WagerCancelled(_wagerId);\n    }\n}\n",
  "sourcePath": "/Users/jordanrowley/Desktop/Stuff/GGWagers/contracts/Wager.sol",
  "compiler": {
    "name": "solc",
    "version": "0.8.11+commit.d7f03943.Emscripten.clang"
  },
  "schemaVersion": "3.4.4",
  "updatedAt": "2021-12-29T18:10:22.708Z",
  "networkType": "ethereum",
  "devdoc": {
    "kind": "dev",
    "methods": {},
    "version": 1
  },
  "userdoc": {
    "kind": "user",
    "methods": {},
    "version": 1
  }
}