{
  "contractName": "GGToken",
  "abi": [
    {
      "constant": true,
      "inputs": [],
      "name": "totalSupply",
      "outputs": [
        {
          "name": "",
          "type": "uint256"
        }
      ],
      "payable": false,
      "stateMutability": "view",
      "type": "function",
      "signature": "0x18160ddd"
    },
    {
      "inputs": [],
      "payable": false,
      "stateMutability": "nonpayable",
      "type": "constructor",
      "signature": "constructor"
    }
  ],
  "bytecode": "0x608060405234801561001057600080fd5b506305f5e100600081905550609e8061002a6000396000f3fe608060405260043610603f576000357c0100000000000000000000000000000000000000000000000000000000900463ffffffff16806318160ddd146044575b600080fd5b348015604f57600080fd5b506056606c565b6040518082815260200191505060405180910390f35b6000548156fea165627a7a723058206837a1d739935a3c013bc3836d8593aaf44b2ac8f142062fa29a3d9058bc1c8c0029",
  "source": "pragma solidity >=0.4.21 <0.7.0;\n\ncontract GGToken {\n\n\t//Constructor\n\t//Set the total number of tokens\n\t//Read the total number of tokens\n\n\tuint256 public totalSupply;\n\n\tconstructor() public {\n\t\ttotalSupply = 100000000;\n\t}\n\n\t\n\n}",
  "sourcePath": "/Users/jordanrowley/Desktop/token_sale/contracts/GGToken.sol",
  "compiler": {
    "name": "solc",
    "version": "0.5.0+commit.1d4f565a.Emscripten.clang"
  },
  "schemaVersion": "3.0.1",
  "updatedAt": "2020-08-14T17:49:45.454Z",
  "devdoc": {
    "methods": {}
  },
  "userdoc": {
    "methods": {}
  }
}